:100000000C944E000C946D000C946D000C946D00DB
:100010000C946D000C946D000C946D000C946D00AC
:100020000C946D000C946D000C946D000C946D009C
:100030000C946D000C946D000C946D000C946D008C
:100040000C946D000C946D000C946D000C946D007C
:100050000C946D000C946D000C946D000C946D006C
:100060000C946D000C946D000C946D000C946D005C
:100070000C946D000C946D000C946D000C946D004C
:100080000C946D000C946D000C946D0012013901FC
:100090005B01200172018B01A401AB0111241FBE81
:1000A000CFEFD0E4DEBFCDBF11E0A0E0B1E0EEEED7
:1000B000F6E000E00BBF02C007900D92AE32B10730
:1000C000D9F711E0AEE2B1E001C01D92A633B1074D
:1000D000E1F70E94E5010C9475030C940000CF93A6
:1000E000C82F8A3019F48DE00E946F009091C000F3
:1000F00095FFFCCFC093C60080E090E0CF910895BB
:10010000CF92DF92EF92FF926B017C0120912E0142
:1001100030912F0140913001509131010E94FC013A
:10012000882309F458C020E030E0A901C701B601D6
:100130000E94FC01811106C0E1E9F0E08081887035
:10014000808305C0E1E9F0E080818360808328E559
:1001500039E344E75FE3C701B6010E94FC0188234D
:100160003CF48FEF9FEF909399008093980027C005
:1001700020E034E244EF56E4C701B6010E940E03CA
:1001800018162CF4109299001092980018C020E0D4
:1001900030E040E053E4C701B6010E9412039B0126
:1001A000AC0160E074E284EF9AE40E9400020E94D5
:1001B00068026150710970939900609398001092E1
:1001C000950010929400C0922E01D0922F01E092DF
:1001D0003001F0923101FF90EF90DF90CF900895C1
:1001E00080E4809390008BE08093910060E070E069
:1001F000CB010E948000089510929000109291000F
:10020000089580B18095877080933301E091340127
:10021000F0913501E830F10508F0A3C0EA5BFF4F2B
:100220000C94F301813039F483E090E09093350130
:100230008093340196C0109235011092340191C020
:10024000811109C081E090E09093350180933401E1
:100250001092320186C0813029F01092350110923F
:1002600034017FC083E090E09093350180933401A6
:1002700078C0823039F484E090E090933501809327
:1002800034016FC0843039F485E090E090933501FB
:100290008093340166C0813039F482E090E090931D
:1002A0003501809334015DC081E090E09093350189
:1002B0008093340156C0811105C01092350110920F
:1002C00034014FC0813039F081E090E090933501E6
:1002D0008093340146C082E090E090933501809392
:1002E00034013FC0811107C086E090E09093350152
:1002F0008093340136C0823039F484E090E09093EA
:100300003501809334012DC081E090E09093350158
:100310008093340126C0811107C087E090E090935C
:100320003501809334011DC0843039F485E090E0BC
:10033000909335018093340114C081E090E0909354
:100340003501809334010DC081E090E09093350138
:100350008093340106C081E090E090933501809352
:10036000340180913401909135018130910569F01B
:1003700030F086309105C9F00797F9F0089560E0F4
:1003800070E0CB010E9480000895E0913201F0E01E
:10039000EE0FFF1FEE0FFF1FE25FFE4F60817181C6
:1003A000828193810E94800008958091320187307C
:1003B00058F48F5F80933201089580913201882331
:1003C00019F0815080933201089511B88FEF82B9EE
:1003D00084B915B80E94F0001092350110923401D2
:1003E0000E940101FDCFEE0FFF1F0024001C0BBE79
:1003F0000790F691E02D09949CD008F481E00895CF
:100400000CD0D2C0CAD040F0C1D030F021F45F3F50
:1004100019F0B3C05111FCC0B6C0D7D098F39923DE
:10042000C9F35523B1F3951B550BBB27AA276217B8
:100430007307840738F09F5F5F4F220F331F441FFD
:10044000AA1FA9F333D00E2E3AF0E0E830D0915035
:100450005040E695001CCAF729D0FE2F27D0660F22
:10046000771F881FBB1F261737074807AB07B0E861
:1004700009F0BB0B802DBF01FF2793585F4F2AF077
:100480009E3F510568F079C0C3C05F3FECF3983ED2
:10049000DCF3869577956795B795F7959F5FC9F7D4
:1004A000880F911D9695879597F90895E1E0660F5D
:1004B000771F881FBB1F621773078407BA0720F0D6
:1004C000621B730B840BBA0BEE1F88F7E09508953F
:1004D00004D06894B1119CC008957FD088F09F57D4
:1004E00090F0B92F9927B751A0F0D1F0660F771F80
:1004F000881F991F1AF0BA95C9F712C0B13081F060
:1005000086D0B1E0089583C0672F782F8827B85F21
:1005100039F0B93FCCF3869577956795B395D9F7C0
:100520003EF490958095709561957F4F8F4F9F4FCA
:100530000895990F0008550FAA0BE0E8FEEF161674
:100540001706E807F907C0F012161306E407F507C7
:1005500098F0621B730B840B950B39F40A2661F03B
:10056000232B242B252B21F408950A2609F4A140DE
:10057000A6958FEF811D811D089597F99F6780E8EB
:1005800070E060E008959FEF80EC089500240A94E5
:100590001616170618060906089500240A9412165E
:1005A0001306140605060895092E0394000C11F491
:1005B000882352F0BB0F40F4BF2B11F460FF04C03E
:1005C0006F5F7F4F8F4F9F4F089557FD9058440F97
:1005D000551F59F05F3F71F04795880F97FB991FA2
:1005E00061F09F3F79F0879508951216130614065F
:1005F000551FF2CF4695F1DF08C0161617061806EC
:10060000991FF1CF86957105610508940895E894C6
:10061000BB2766277727CB0197F908958ADF08F46F
:100620008FEF08950BD0C0CFB1DF28F0B6DF18F000
:10063000952309F0A2CFA7CF1124EACFC6DFA0F3FC
:10064000959FD1F3950F50E0551F629FF001729F67
:10065000BB27F00DB11D639FAA27F00DB11DAA1F86
:10066000649F6627B00DA11D661F829F2227B00DD3
:10067000A11D621F739FB00DA11D621F839FA00D5E
:10068000611D221F749F3327A00D611D231F849FAE
:10069000600D211D822F762F6A2F11249F57504005
:1006A0008AF0E1F088234AF0EE0FFF1FBB1F661FA0
:1006B000771F881F91505040A9F79E3F510570F059
:1006C0005CCFA6CF5F3FECF3983EDCF38695779541
:1006D0006795B795F795E7959F5FC1F7FE2B880F54
:0E06E000911D9695879597F90895F894FFCF90
:1006EE0000000002000000006F0000000000A4D017
:1006FE0082437BD49243A4D0A443719DAE430000A9
:0E070E00C4430000DC43A4F0F64300D00244D4
:00000001FF
